:03000000020C6C83
:0C0C6C00787FE4F6D8FD758142020CB3DD
:0C0FAA000A27C0F9A4B0999282F8809048
:0E0F9B00E4FFFE0FBF00010EEF64FA4E70F58A
:010FA9002225
:090FB700D2B0D2B1C2B1C2B02225
:090FC000D2B0C2B1D2B1D2B0220C
:100F8400E4FEEF3392B1D2B0C2B0EF25E0FF0EBE63
:060F940008F0D2B0C2B06B
:010F9A002234
:100F6A00E4FFFED2B0A2B19206EF25E0FFA206E4AA
:090F7A00334207C2B00EBE08EAC2
:010F8300224B
:040EF300AB05AA079A
:100EF700EBFF7E007C007D0A120D2CEB75F00A8457
:100F0700C454F04DFB120FB77FD0120F84AF0212FB
:0A0F17000F84AF03120F84020FC015
:020E2500AD0717
:100E2700120FB77FD0120F84AF05120F84120FB7BE
:100E37007FD1120F84120F6A7E00120FC0AB07EE2C
:100E4700C4F854F0C868FEEFC4540F48FF7C007D17
:090E57000A120D1AEB540F2FFFD3
:010E6000226F
:100E9300AD31E4FF120EF3AD367F01120EF3AD3523
:100EA3007F02120EF3AD377F03120EF3AD327F04D0
:100EB300120EF3AD257F05120EF3AD347F06020E3D
:010EC300F33B
:100E61007F02120E258F357F01120E258F36E4FF8A
:100E7100120E258F317F03120E258F377F04120E3C
:100E8100258F327F05120E258F257F06120E258FA5
:020E9100342209
:03000B00020FC918
:090FC9000533758AB0758C3C32C9
:100F2100853E80C2A7120F9BD2A7853F80C2A61221
:100F31000F9BD2A6854080C2A5120F9BD2A58541E9
:090F410080C2A4120F9BD2A4226D
:10080000E53B7060D3E53D648094804028153DE56C
:100810003D75F00A120CF82427F8E6F53EE53D7523
:10082000F00A120CF8AFF074272FF8E6F53FD2A0CB
:10083000D2A1C2A22285223D85213CE53C75F00A69
:10084000120CF82427F8E6F53EE53C75F00A120C88
:10085000F8AFF074272FF8E6F53FD2A0C2A1D2A2DC
:10086000753B0122E53B64017060D3E53C648094F4
:10087000804028153CE53C75F00A120CF82427F856
:10088000E6F53EE53C75F00A120CF8AFF074272F40
:10089000F8E6F53FD2A0C2A1D2A22285213C85264E
:1008A00023E52375F00A120CF82427F8E6F53EE557
:1008B0002375F00A120CF8AFF074272FF8E6F53F15
:1008C000C2A0D2A1D2A2753B0222E53B6402705FB6
:1008D000D3E5236480948040281523E52375F00A2E
:1008E000120CF82427F8E6F53EE52375F00A120C01
:1008F000F8AFF074272FF8E6F53FC2A0D2A1D2A23C
:100900002285262385223DE53D75F00A120CF82448
:1009100027F8E6F53EE53D75F00A120CF8AFF074E5
:10092000272FF8E6F53FD2A0D2A1C2A2E4F53B22E0
:10093000E53A7060D3E5426480948040281542E532
:100940004275F00A120CF82427F8E6F540E54275E6
:10095000F00A120CF8AFF074272FF8E6F541C2A3A5
:10096000D2B6D2B722852642852239E53975F00AFA
:10097000120CF82427F8E6F540E53975F00A120C58
:10098000F8AFF074272FF8E6F541D2A3D2B6C2B77C
:10099000753A0122E53A64017060D3E539648094C8
:1009A0008040281539E53975F00A120CF82427F82B
:1009B000E6F540E53975F00A120CF8AFF074272F10
:1009C000F8E6F541D2A3D2B6C2B7228522398521F5
:1009D00038E53875F00A120CF82427F8E6F540E5FA
:1009E0003875F00A120CF8AFF074272FF8E6F541CD
:1009F000D2A3C2B6D2B7753A0222E53A6402705F5A
:100A0000D3E5386480948040281538E53875F00ABD
:100A1000120CF82427F8E6F540E53875F00A120CB8
:100A2000F8AFF074272FF8E6F541D2A3C2B6D2B7DB
:100A300022852138852642E54275F00A120CF824F9
:100A400027F8E6F540E54275F00A120CF8AFF074AD
:100A5000272FF8E6F541C2A3D2B6D2B7E4F53A2281
:100F4A0020B41C120F2120B4160524D3E524648092
:100F5A0094834003E4F52420B405120F2180F8227B
:100D810020B34E120F2120B348E524B401100535DC
:100D9100D3E53564809497402DE4F5358028E5242A
:100DA100B402100536D3E536648094BB4003E4F504
:100DB100368013E524B403110531D3E53164809401
:100DC100BB4003E4F531120E9320B305120F2180CD
:020DD100F82206
:100DD30020B54E120F2120B548E524B40110153576
:100DE300C3E53564809480502D7535178028E5243C
:100DF300B402101536C3E53664809480500375360B
:100E03003B8013E524B403111531C3E531648094A9
:100E130080500375313B120E9320B505120F2180CC
:020E2300F822B3
:100B2B00D2A3D2B6D2B7D2A0D2A1D2A2C3E533649C
:100B3B0080948A5029E524B40107753EFF753FFF69
:100B4B0022E524B40202800FE52464036003020B48
:100B5B00DC753EFF753FFF7540FF7541FF22E524B5
:100B6B00B40120E53575F00A120CF82427F8E6F5E8
:100B7B003EE53575F00A120CF8AFF074272FF8E646
:100B8B00F53F22E524B40220E53675F00A120CF885
:100B9B002427F8E6F540E53675F00A120CF8AFF0AD
:100BAB0074272FF8E6F54122E524B40324E53175CB
:100BBB00F00A120CF82427F8E6FFF53EE53175F044
:100BCB000A120CF8AEF074272EF8E6F53F8F40F5BD
:020BDB004122B5
:100EC400753EFF753FFF7540FF7541FFC3E5336411
:100ED40080948A500DD2A3C2B6D2B7D2A0C2A1D2F6
:0F0EE400A222D2A3D2B6D2B7D2A0D2A1D2A2223A
:100A6000C3E535648094855003020B1EC3E53564ED
:100A70008094875014D204D203D202D201D205202E
:100A80000003020B2AC2008074C3E5356480948998
:100A90005014D204D203D202D200D20520010302A4
:100AA0000B2AC2018032C3E535648094915011D283
:100AB00004D203D201D200D20530026EC202803DC0
:100AC000C3E53564809494501CD204D202D201D282
:100AD00000D205300354C203E4F53BF53A752628ED
:100AE0007522248023C3E535648094965030D20368
:100AF000D202D201D200D20530042FC204E4F53B69
:100B0000F53A752614752210752103852623852252
:100B10003D85213C85264285223985213822C20522
:0B0B2000D204D203D202D201D2002284
:100BDD00758901D28CD2AFD2A9758AB0758C3C754E
:100BED002614752210752103E4F53BF53A8526236D
:100BFD0085223D85213C852642852239852138F582
:100C0D0024D205D2A3D2B6D2B7D2A0D2A1D2A2D22B
:100C1D0004D203D202D201D200C3E533648094948E
:100C2D005024120F21120F4A120D81120DD3E524FB
:100C3D007005120A608003120B2B2005DCE5247071
:100C4D00D8120EC480D3E4F533E5247009300506BF
:0F0C5D00120800120930E52470BF120E6180BA30
:100C7800020BDDE493A3F8E493A34003F68001F2AA
:100C880008DFF48029E493A3F85407240CC8C3337D
:100C9800C4540F4420C8834004F456800146F6DF4C
:100CA800E4800B0102040810204080900FAAE47E23
:100CB800019360BCA3FF543F30E509541FFEE49341
:100CC800A360010ECF54C025E060A840B8E493A308
:100CD800FAE493A3F8E493A3C8C582C8CAC583CA33
:100CE800F0A3C8C582C8CAC583CADFE9DEE780BEEB
:010FB600003A
:100CF800C2D530F707B2D563F0FF05F030E70CB284
:100D0800D5F4048463F0FF05F080018430D502F443
:020D18000422B3
:100D1A00EF8DF0A4A8F0CF8CF0A428CE8DF0A42EED
:020D2A00FE22A7
:100D2C00BC000BBE0029EF8DF084FFADF022E4CCAB
:100D3C00F875F008EF2FFFEE33FEEC33FCEE9DEC74
:100D4C00984005FCEE9DFE0FD5F0E9E4CEFD22EDBA
:100D5C00F8F5F0EE8420D21CFEADF075F008EF2F04
:100D6C00FFED33FD4007985006D5F0F222C398FDF5
:050D7C000FD5F0EA2292
:00000001FF
